S00D00005461736B312E7372656353
S1130000C00D0020B1080000AD080000AD080000DC
S113001000000000000000000000000000000000DC
S1130020000000000000000000000000AD08000017
S11300300000000000000000AD080000AD08000052
S1130040AD080000AD080000AD080000AD080000D8
S1130050AD080000AD080000AD080000AD080000C8
S1130060AD080000AD080000AD080000AD080000B8
S1130070AD080000AD080000AD080000AD080000A8
S1130080AD080000AD080000AD080000AD08000098
S1130090AD080000AD080000AD080000AD08000088
S11300A0AD080000AD080000AD080000AD08000078
S11300B0AD080000AD080000AD08000010B5064C06
S11300C02378002B07D1054B002B02D0044800E015
S11300D000BF0123237010BD0800002000000000B1
S11300E0A00F0000084B10B5002B03D007490848A7
S11300F000E000BF07480368002B00D110BD064B89
S1130100002BFBD09847F9E7000000000C0000200A
S1130110A00F0000A00F00000000000003680A4ABE
S1130120934203D0094A934207D07047084A1169A1
S113013080235B000B431361F7E7054A11698023B1
S11301409B000B431361F0E7001C004200200042B7
S11301500008004070B50C0015000160A54B9847DD
S1130160A54B00221A702A781A70A44B9C4200D125
S1130170C6E0A34B9C4200D1FFE0A36902221343D3
S1130180A3610023BC22A3500C32A3509D4BE36116
S11301909D4BE360AB7B002B04D0E26880231B04FF
S11301A01343E3606B78002B03D0A368402213430E
S11301B0A3606269AB7813436361EB78002B04D0CE
S11301C0A2698023DB011343A3612B79002B04D0A4
S11301D0A26980239B011343A3616B79002B04D094
S11301E0A26980235B011343A361AB79002B03D184
S11301F0A36940221343A361EB79002B03D0A369C5
S113020010221343A3612B7A002B03D0A369082285
S11302101343A3616B7A1B04F022120313400122DF
S1130220134323622B7B6A7B13436A8912041343AF
S1130230A362EB7B1B02FE22D2011340297C7F22A6
S11302400A401343A3646A7C120130231340A97C3F
S113025089000C220A4013438022A350EB7C002B1C
S113026003D0A35802210B43A3502B7D002B04D0B1
S11302708022A35801210B43A3509023AA69E25082
S11302802B7F002B05D0A022A15880231B060B43F3
S1130290A350A022A1586B7F1B06FE20C00503407B
S11302A00B43A350AB7F002B05D01032A158802301
S11302B01B060B43A350B022A158EB7F1B06FE2064
S11302C0C00503400B43A3502023EB5C002B05D057
S11302D01032A1588023DB050B43A350F022A15810
S11302E02123EB5C1B06FC20800503400B43A35039
S11302F00323E365043B103AA3500432A35070BDBA
S11303003D491A20414B98471A20414B98473B4B93
S11303109A6902210A439A613E4A1204120C80210E
S113032089030A4384215A503B4A1204120C802147
S113033049030A4388201A50384A1204120C0A430B
S113034018301A50364A1204120C1143B022995034
S1130350344A1204120CAC215A50334A1204120CBF
S113036032490A43C0215A50314A1204120C8021E6
S113037009030A43F0215A5003E71F491B20234B6A
S113038098471B20224B98471D4B9A6902210A4328
S11303909A61284A1204120C802189030A43842199
S11303A05A50254A1204120C802149030A4388201A
S11303B01A50224A1204120C0A4318301A50204AC6
S11303C01204120C1143B02299501E4A1204120C4A
S11303D0AC215A501C4A1204120C14490A43C0217D
S11303E05A501A4A1204120C802109030A43F021BC
S11303F05A50C6E61D010000B4090020001C00424A
S113040000200042040E1802330A0500850700008C
S113041015070000A403002024010020A4010020EB
S1130420A40200202400002024040020000004046E
S1130430A404002064080020E405002064060020D1
S113044064070020E4040020E4080020640900207C
S11304500268936901218B439361016801228B69CE
S11304601A42FCD17047000070B50D0003680D4CB2
S1130470A34204D00C4C1720A34209D070BD120132
S11304800A49891810222800094B98470020F5E7EB
S113049012010849891810222800054B98470020AA
S11304A0ECE7C046001C004200200042A4010020EA
S11304B0ED0E00006406002010B50368174883425F
S11304C004D0174C1720A34214D010BD0B68154854
S11304D0120113504C6883185C600B000833083217
S11304E08218103118781070013301328B42F9D11F
S11304F00020EAE70B680C48120113504C6883187B
S11305005C600B00083308328218103118781070C0
S1130510013301328B42F9D10020D6E7001C00429E
S11305200020004224040020E4080020704700005A
S11305300C4B1B68002B06D1EFF31083002B07D064
S11305400022094B1A70074A13680133136070477D
S113055072B6BFF35F8F0022044B1A700132024B54
S11305601A70F0E7A4090020A80900200000002068
S1130570084B1A68013A1A601B68002B09D1064B14
S11305801B78002B05D00122044B1A70BFF35F8F38
S113059062B67047A4090020A809002000000020CA
S11305A000B585B00322104B9A60104A53681E218F
S11305B08B4353600E4A137D62310B4313750D4B0D
S11305C0984701230C4A137101A94B6000234B7017
S11305D006220A700B724B720020084B98470020C9
S11305E0074B984705B000BD00180040004000418B
S11305F00010004005060000000800402906000025
S1130600D5060000064A536980210B435361012239
S1130610044B1A7019000B781342FCD17047C04682
S113062000080040001C004070B504000D784B78B1
S1130630002B02D08023DB001D434B7A002B02D019
S113064080231B011D43486801280FD9431E18420B
S113065031D102282DD90223002201325B009842B5
S1130660FBD880235B011D43120415430B7A002B36
S113067002D080239B011D430426A6401149124A3F
S11306804B6813401E42FBD1104B9847A4000D4BFE
S11306909C466444226A80235B001A402A432262F7
S11306A06146094A4B6813401E42FBD1084B9847E8
S11306B070BD0022D5E7000480239B001843054346
S11306C0D4E7C046001C0040FC07000031050000D0
S11306D07105000010B504000422824009480A494B
S11306E043680B401A42FBD1084B9847A400054BC2
S11306F09C466444226A80235B0013432362044BB8
S1130700984710BD001C0040FC07000031050000A4
S11307107105000010B50400094B9847A000094B6F
S11307209C4660448022835840210B4383504031CF
S1130730403A43581A42FCD0034B984710BDC04678
S113074031050000001C00407105000010B50400D4
S1130750094B9847A000094B9C466044802283586B
S113076040218B4383504031403A43581A42FCD1D4
S1130770034B984710BDC04631050000001C0040E3
S11307807105000070B504000D00054B98472A78E8
S11307900F2313402034A400024AA35070BDC04666
S11307A04D070000001C004030B5D378002B35D134
S11307B01378802B29D01B068024640223435478A9
S11307C00225AC4306D19478002C20D18024A402C5
S11307D0234341605478013C012C1CD90D042D0C99
S11307E0A024E4052C431C4384620D0CD02424066D
S11307F02C431C438462D478002C22D15B031CD587
S11308009378012B1ED0416117E00023D7E7C02461
S1130810E4022343DDE70D4C2340DFE741600C0491
S1130820240CA023DB05234383620C0CD0231B067A
S113083023438362D378002B03D15378013B012BEC
S113084002D930BD8161F8E78160FAE7FFFFFBFF61
S113085010B50A00C1090023002905D14309DB01B1
S11308608221C9058C4663441F2420400121814014
S11308701800014B984710BDA907000070470000FD
S113088010B5054B9847054B9847054B9847054BC2
S11308909847054B984710BDA10500002D050000A1
S11308A07D0800007D0800007D080000FEE70000D0
S11308B010B5174A174B9A4211D01A00164B9A4298
S11308C00DD2164A03339B1A9B0801339B00002266
S11308D010480F498C58845004329A42FAD1104A75
S11308E0104B9A420AD2D3430E495B1803218B431F
S11308F004339B18002102C29342FCD10A4AFF210F
S11309000A4B8B4393600A4B98470A4B9847FEE780
S1130910A00F0000000000200800002004000020B8
S113092008000020C009002000ED00E000000000E5
S1130930A50E0000F90A000070B582B001AC0023D6
S113094063700122A270E37006262670210018202D
S1130950034DA847267021001920A84702B070BD96
S11309605108000010B58AB001AA082313700023AF
S1130970537093700121D170117151719171D371C0
S11309801372537201204042508113735373937353
S1130990D3731374033050749074D17411750C486C
S11309A09061117753779177D3771F315354013185
S11309B05354084C08492000084B98472000084B22
S11309C0984780221202074B1A600AB010BDC04635
S11309D0FFFFFF1FB8090020001C00425501000062
S11309E05104000000E100E010B584B0244B1A88E3
S11309F0D302FF21C9020B40120A134300220092C2
S1130A0088221204019200991E4A0A430092009916
S1130A108022D2050A43009201931B4C00226946AE
S1130A2020001A4B984723689A69920702D401213F
S1130A30D0229950164B1A88D302FF21C9020B40C9
S1130A40120A134300220092882212040192009990
S1130A500C4A0A43009200998022D2050A4300926C
S1130A600193094C002269462000084B98472368EB
S1130A709A69920702D40121D022995004B010BD82
S1130A800400002000030801B8090020B904000094
S1130A900200002010B584B0114B1B681A6DD207F8
S1130AA003D4104B186804B010BD01221A650C4C15
S1130AB00022694620000C4B984722680021A82395
S1130AC0D150019B01980006000C5B031B0E1843D8
S1130AD0064B98470649074B9847024B1860E0E7D6
S1130AE0B8090020BC09002069040000C90D0000F9
S1130AF000002041390B000010B5084B9847084B03
S1130B009847084B9847084B9847084CA047084B10
S1130B101860A047074B1860FEE7C0468108000034
S1130B203909000065090000E9090000950A000080
S1130B30B0090020AC090020F0B557464E46DE4609
S1130B404546E0B544024300C60F83B00F1C640A57
S1130B501B0EB24653D0FF2B27D08022E400D204D0
S1130B6014437F22524290469844002399469B4660
S1130B707D027800FB0F6D0A000E009324D0FF283D
S1130B8046D080230021ED00DB041D437F38474617
S1130B90381A4F460F43BF00B9463300009A874FB7
S1130BA053404A46BA5801939746002C4ED1082325
S1130BB09946F7339846FD3B9B467D027800FB0F30
S1130BC06D0A000E0093DAD1002D26D100200121F8
S1130BD03300009A7A4F53404246101A4A460A4359
S1130BE09200BA581D009746009B2C009A468B46EB
S1130BF05B46022B31D15346FF21002438E0002C00
S1130C0017D1042399460023984601339B46AFE746
S1130C10FF20002D0BD10221DAE7280000F024F98F
S1130C20431F9D4076235B42181A0021AFE703213E
S1130C30ADE7200000F018F9431F9C4076235B4287
S1130C401B1A9846002399469B4691E70C23994624
S1130C50F3339846FC3B9B468AE7032B00D1A5E07F
S1130C605546012B00D081E00123002100242B40B4
S1130C706402C905600ADB070843184303B03CBC9F
S1130C8090469946A246AB46F0BD80240023E40377
S1130C90FF21EDE7FF210024EAE70123591A1B296C
S1130CA066DD019A134000210024E1E78023DB0381
S1130CB01C4238D01D4251D01C436402640A3300E4
S1130CC0FF21D5E763016C01A3423BD21B2600211F
S1130CD0013801251F0049005B00002F01DB9C4205
S1130CE001D81B1B2943013E002EF3D11C00631EB7
S1130CF09C410C4301007F310029CEDD630704D001
S1130D000F232340042B00D00434230103D5010016
S1130D102C4B80311C40FE290DDD0123019AFF215B
S1130D2013400024A4E78023DB031C436402640A09
S1130D303300FF219CE70123019AA401640AC9B28C
S1130D40134095E71B1B1A260121C2E7009B8B4623
S1130D509A4600244CE76302E5D500258024E40389
S1130D602C436402640A009BFF2181E70195C1E7DB
S1130D7023002020CB40411A8C40611E8C411C432F
S1130D80630704D00F232340042B00D004346301F1
S1130D9005D50123019A01211340002468E70123AA
S1130DA0019AA401640A1340002161E78023DB0354
S1130DB01C436402640A5346FF2159E7000F0000F4
S1130DC0400F0000FFFFFFF770B5002830D0C317B5
S1130DD0C4185C40C50F200000F046F89E231B1A7F
S1130DE0962B0DDC9622D21A94402A006402640ADF
S1130DF0DBB26402DB05600AD2071843104370BDFE
S1130E00992B19DC9922D21A002A29DD9440220058
S1130E10144C1440510704D00F210A40042A00D076
S1130E200434620113D4A401640ADBB22A00E0E7AB
S1130E30002200230024DCE705222100121AD140FD
S1130E40B922D21A9440621E94410C43DAE7054B4E
S1130E502A001C409F23A4011B1A640ADBB2C8E7C2
S1130E602200D5E7FFFFFFFB1C2101231B0498424E
S1130E7001D3000C10391B0A984201D3000A083927
S1130E801B09984201D30009043902A2105C4018DE
S1130E907047C04604030202010101010000000082
S1130EA00000000070B500260C4D0D4C641BA4100E
S1130EB0A64209D1002600F063F80A4D0A4C641BCF
S1130EC0A410A64205D170BDB300EB589847013673
S1130ED0EEE7B300EB5898470136F2E78C0F0000B9
S1130EE08C0F00008C0F0000900F0000002310B541
S1130EF09A4200D110BDCC5CC4540133F8E7000021
S1130F00C40C0000940C0000A60C0000E80B0000C8
S1130F10A60C00008A0C0000A60C0000E80B0000E0
S1130F20940C0000940C00008A0C0000E80B0000F4
S1130F30F00B0000F00B0000F00B0000AC0C000004
S1130F40940C0000940C0000680C00004C0D000090
S1130F50680C00008A0C0000680C00004C0D0000B6
S1130F60940C0000940C00008A0C00004C0D00004E
S1130F70F00B0000F00B0000F00B0000560D000019
S1130F80F8B5C046F8BC08BC9E467047E5000000B2
S1130F90F8B5C046F8BC08BC9E467047BD000000CA
S10B0FA00100C8009D080000D7
S90308B143
